:100000000C9483000C94B4000C94B4000C94B400D1
:100010000C94B4000C94B4000C94B4000C94B40090
:100020000C94B4000C94B4000C94B4000C94B40080
:100030000C94B4000C94B4000C94B4000C94B40070
:100040000C94B4000C94B4000C94B4000C94B40060
:100050000C941F050C94B4000C94B4000C94D504BB
:100060000C94B4000C94B4000C94B4000C94B40040
:100070000C94B4000C94B4000C94B4000C94B40030
:100080000C94B4000C94B4000C94B4000C94B40020
:100090000C949F040C9475040C94B4000C94B4005C
:1000A0000C94B4000C94B4000C94B4000C94B40000
:1000B0000C94B4000C94B4000C94B4000C94B400F0
:1000C0000C94B4000C94B4000C94B4000C94B400E0
:1000D0000C94B4000C94B4000C94B4000C94B400D0
:1000E0000C94B4000C94F2000C9499010C94E3006D
:1000F0000C9414010C944C010C9406010C94A1076F
:100100000C94B600A10711241FBECFEFD1E2DEBFD1
:10011000CDBF00E00CBF12E0A0E0B2E0ECEBF4E1F8
:1001200000E00BBF02C007900D92AA34B107D9F7C7
:1001300022E0AAE4B2E001C01D92AD3FB207E1F7B0
:1001400010E0C3E8D0E000E006C021970109802F4D
:10015000FE010E94540AC238D10780E00807A9F7BF
:100160000E9445050C945C0A0C940000AF92BF926B
:10017000CF92DF92EF92FF920F931F93CF93DF9373
:100180006C017B018B01040F151FEB015E01AE18A2
:10019000BF08C017D10759F06991D601ED91FC91C4
:1001A0000190F081E02DC6011995892B79F7C501E1
:1001B000DF91CF911F910F91FF90EF90DF90CF9043
:1001C000BF90AF900895FC01538D448D252F30E0F2
:1001D000842F90E0821B930B541710F0CF96089554
:1001E00001970895FC01918D828D981761F0A28D81
:1001F000AE0FBF2FB11D5D968C91928D9F5F9F7347
:10020000928F90E008958FEF9FEF0895FC01918DFC
:10021000828D981731F0828DE80FF11D858D90E069
:1002200008958FEF9FEF0895FC01918D228D892F06
:1002300090E0805C9F4F821B91098F7399270895EE
:1002400080E692E00E94140121E0892B09F420E06D
:10025000822F0895FC01A48DA80FB92FB11DA35AB8
:10026000BF4F2C91848D90E001968F739927848FD6
:10027000A689B7892C93A089B1898C9183708064F9
:100280008C93938D848D981306C00288F389E02D9A
:1002900080818F7D80830895EF92FF920F931F934B
:1002A000CF93DF93EC0181E0888F9B8D8C8D981329
:1002B0001AC0E889F989808185FF15C09FB7F89435
:1002C000EE89FF896083E889F98980818370806481
:1002D00080839FBF81E090E0DF91CF911F910F91CC
:1002E000FF90EF900895F62E0B8D10E00F5F1F4FDB
:1002F0000F731127E02E8C8D8E110CC00FB607FCEA
:10030000FACFE889F989808185FFF5CFCE010E9477
:100310002A01F1CFEB8DEC0FFD2FF11DE35AFF4FBA
:10032000F0829FB7F8940B8FEA89FB898081806205
:10033000CFCFCF93DF93EC01888D8823B9F0AA89C2
:10034000BB89E889F9898C9185FD03C0808186FD90
:100350000DC00FB607FCF7CF8C9185FFF2CF8081DF
:1003600085FFEDCFCE010E942A01E9CFDF91CF9129
:10037000089580E090E0892B49F080E090E0892B9F
:1003800029F00E94000081110E94000080E090E0AE
:10039000892B29F00E94200181110E94000080E039
:1003A00090E0892B49F080E090E0892B29F00E94B1
:1003B000000081110E94000080E090E0892B49F04C
:1003C00080E090E0892B29F00E94000081110C94BC
:1003D0000000089590917B00977F90937B00865357
:1003E000806480937C0080917A00806480937A009E
:1003F00080917A0086FDFCCF809178009091790001
:1004000008953FB7F8948091510290915202A091C3
:100410005302B091540226B5A89B05C02F3F19F096
:100420000196A11DB11D3FBFBA2FA92F982F882774
:10043000BC01CD01620F711D811D911D42E0660F4F
:10044000771F881F991F4A95D1F708958F929F9221
:10045000AF92BF92CF92DF92EF92FF924B015C017D
:100460000E9401026B017C010E9401026C197D094E
:100470008E099F09683E734081059105A8F321E02C
:10048000821A9108A108B10888EEC80E83E0D81E30
:10049000E11CF11C81149104A104B10429F7FF901F
:1004A000EF90DF90CF90BF90AF909F908F90089586
:1004B0008F929F92AF92BF92EF92FF920F931F93F2
:1004C000CF93DF9300D01F92CDB7DEB78FB7F894EC
:1004D00080904D0290904E02A0904F02B09050023A
:1004E0008FBF8AE0E82EF12C10E000E02FB7F894DF
:1004F00080914D0290914E02A0914F02B091500216
:100500002FBF88199909AA09BB090297A105B1054E
:1005100068F38AE30E94EA01080F191F81E0E81AD4
:10052000F10821F7C8016AE070E00E940A0A6C5DD8
:100530007109072E000C880B990B0E94E30820E03C
:1005400030E04FE254E40E94980920E038E043E1B3
:1005500056E40E94400869837A838B839C83698177
:100560007A818B819C810F900F900F900F90DF917B
:10057000CF911F910F91FF90EF90BF90AF909F9000
:100580008F9008958F929F92AF92BF92CF92DF92F9
:10059000EF92FF92CF93DF93CAE0D0E0C12CD12C31
:1005A00076018DE30E94EA01BC01990F880B990B3B
:1005B0000E94E3089B01AC01C701B6010E94CF076E
:1005C0006B017C0162E370E080E090E00E94260213
:1005D000219739F720E030E040E251E4C701B6014D
:1005E0000E94400820E030EC4FE754E40E944008AD
:1005F00020E030E040EA50E40E9498096B017C0161
:100600002FE135E84BE050E40E9498094B015C0172
:10061000A701960160E070E080E291E40E94CE07BD
:100620009B01AC01C501B4010E94400820E030E00C
:100630004AE754E40E94980920E030E04AE754E495
:100640000E94400820E030E040E85FE30E94CE07CF
:1006500028E430E54CE75BE30E944008DF91CF914E
:10066000FF90EF90DF90CF90BF90AF909F908F90D2
:100670000895FC0101900020E9F73197AF01481B74
:10068000590BBC0180E692E00C94B6008F929F92C9
:10069000AF92BF920F931F93CF93DF93CDB7DEB787
:1006A000A1970FB6F894DEBF0FBECDBF19A242309E
:1006B00008F44AE08E010F5D1F4F842E912CB12C5F
:1006C000A12CA50194010E941E0AE62FB901CA01BE
:1006D000EA30F4F4E05DD801EE938D01232B242B56
:1006E000252B79F790E080E0109719F0CD010E945A
:1006F0003903A1960FB6F894DEBF0FBECDBFDF91D0
:10070000CF911F910F91BF90AF909F908F900895C0
:10071000E95CE1CF4F925F926F927F928F929F92AE
:10072000AF92BF92CF92DF92EF92FF920F931F93FF
:10073000CF936B017C01742EAC019B010E94050AD2
:10074000882399F083E192E0CF911F910F91FF9060
:10075000EF90DF90CF90BF90AF909F908F907F9061
:100760006F905F904F900C94390346015701E894C5
:10077000B7F82FEF3FEF4FE75FE7C501B4010E94E5
:10078000050A81110DC02FEF3FEF4FE75FE7C5016D
:10079000B4010E943B0818161CF487E192E0D4CF04
:1007A0002FEF3FEF4FE75FE4C701B6010E949309C7
:1007B00018161CF48BE192E0C7CF2FEF3FEF4FE705
:1007C0005FECC701B6010E943B0887FDF3CF20E034
:1007D00030E0A901C701B6010E943B0810E000E02B
:1007E00087FF0AC06DE280E692E00E944C018C0116
:1007F000F7FAF094F7F8F094C0E060E070E080E081
:100800009FE37C1641F020E030E040E251E40E949A
:100810004008CF5FF6CFA70196010E94CF072B01BA
:100820003C010E94B2084B015C014AE00E94460371
:100830007C01E00EF11ECC23C1F1C501B4010E9480
:10084000E1089B01AC01C301B2010E94CE074B013C
:100850005C016EE280E692E00E944C01E80EF91E17
:10086000C15018F120E030E040E251E4C501B4018C
:100870000E9498092B013C010E94B2084B01B12C47
:10088000A12C4AE0C501B4010E944603E80EF91EFE
:10089000C501B4010E94E1089B01AC01C301B20192
:1008A0000E94CE074B015C01DBCFC701CF911F91A6
:1008B0000F91FF90EF90DF90CF90BF90AF909F90FF
:1008C0008F907F906F905F904F900895CF93DF93BC
:1008D00042E00E948A03EC018FE192E00E9439031A
:1008E0008C0F9D1FDF91CF9108951F920F920FB62D
:1008F0000F9211240BB60F922F933F934F935F9358
:100900006F937F938F939F93AF93BF93EF93FF93D7
:1009100080E692E00E942A01FF91EF91BF91AF9192
:100920009F918F917F916F915F914F913F912F9107
:100930000F900BBE0F900FBE0F901F9018951F9237
:100940000F920FB60F9211240BB60F922F938F9325
:100950009F93EF93FF93E0917002F0917102808179
:10096000E0917602F091770282FD1DC09081809126
:1009700079028F5F8F7320917A02821741F0E091A4
:100980007902F0E0E05AFD4F958F80937902FF9154
:10099000EF919F918F912F910F900BBE0F900FBEF3
:1009A0000F901F9018958081F2CF1F920F920FB673
:1009B0000F9211242F933F938F939F93AF93BF93E5
:1009C00080914D0290914E02A0914F02B091500241
:1009D00030914C0223E0230F2D3758F50196A11DCD
:1009E000B11D20934C0280934D0290934E02A09330
:1009F0004F02B09350028091510290915202A09107
:100A00005302B09154020196A11DB11D8093510271
:100A100090935202A0935302B0935402BF91AF91AE
:100A20009F918F913F912F910F900FBE0F901F902C
:100A3000189526E8230F0296A11DB11DD2CF1F9253
:100A40000F920FB60F9211248F939F9380914A02B9
:100A500090914B02019690934B0280934A028091B1
:100A60004A0290914B02863991053CF010924B025C
:100A700010924A0281E080930002B09A9F918F9178
:100A80000F900FBE0F901F901895789484B58260D8
:100A900084BD84B5816084BD85B5826085BD85B522
:100AA000816085BD80916E00816080936E001092A0
:100AB000810080918100826080938100809181001B
:100AC00081608093810080918000816080938000AC
:100AD0008091B10084608093B1008091B00081600A
:100AE0008093B0008091910082608093910080910A
:100AF000910081608093910080919000816080934B
:100B000090008091A10082608093A1008091A1005B
:100B100081608093A1008091A00081608093A000FB
:100B20008091210182608093210180912101816067
:100B30008093210180912001816080932001809128
:100B40007A00846080937A0080917A00826080933A
:100B50007A0080917A00816080937A0080917A0097
:100B6000806880937A001092C100E0917002F09149
:100B7000710282E08083E0916C02F0916D0210823C
:100B8000E0916E02F0916F028FEC808310927802F8
:100B9000E0917402F091750286E08083E091720228
:100BA000F0917302808180618083E0917202F09104
:100BB0007302808188608083E0917202F0917302F9
:100BC000808180688083E0917202F091730280815D
:100BD0008F7D808380B3807180BB80B3807280BB47
:100BE00080B3807480BB80B3807880BB8091070124
:100BF0008170809307016C986D986E986F988091C2
:100C000004018860809304018091040180618093D5
:100C100004018091040180628093040180910401A9
:100C200080648093040180910101886080930101B8
:100C300080910101806180930101809101018062B6
:100C4000809301013C9A3E9A81B18FEF81B98091E6
:100C500007018E6F80930701809104018068809363
:100C6000040180910A018F7080930A0180910B0129
:100C7000806180930B0180910B01806280930B0156
:100C800080910B01806480930B0180910B0180683F
:100C900080930B01C1E00E94580260935C02709344
:100CA0005D0280935E0290935F0282E292E00E9476
:100CB000390360915C0270915D0280915E029091B7
:100CC0005F0242E00E948A038EE292E00E943903B2
:100CD0008FE192E00E9439030E94C20260935802A1
:100CE0007093590280935A0290935B0283E392E0DF
:100CF0000E943903609158027091590280915A0202
:100D000090915B020E946604659B51C0169A669999
:100D100050C0149A80915702811119C08091090125
:100D200084FD09C080915602853008F444C0C09308
:100D30005602109255028091090186FD08C010925A
:100D40005602809155028430D0F1C09355028091B3
:100D5000090185FD12C0C093570289E392E00E9409
:100D600039036091570270E090E080E04AE00E9411
:100D700046038FE192E00E94390380915602882356
:100D800009F443C08130F9F4179A15981398119813
:100D90001298809108018F7E80930801809105014F
:100DA000806880930501809108018F7B2CC0169884
:100DB000AECF1498AFCF8F5F80935602BACF8F5FBC
:100DC00080935502C4CF823019F41798159ADECF5C
:100DD000833021F417981598139AD9CF843009F0ED
:100DE0008AC0179815981398119A12988091080143
:100DF0008F7E80930801809105018F778093050194
:100E000080910801806480930801809155028823B5
:100E1000B9F0813009F077C0129A809108018F7E75
:100E200080930801179815981398119880910501DF
:100E3000806880930501809108018F7B8093080171
:100E400080915702882309F473C06CE271E080E05E
:100E500090E00E9426028091090185FF10925702BE
:100E60000E94580260935C0270935D0280935E0260
:100E700090935F0282E292E00E94390360915C02EB
:100E800070915D0280915E0290915F020E94660403
:100E90000E94580260935C0270935D0280935E0230
:100EA00090935F020E94C2026093580270935902AD
:100EB00080935A0290935B0283E392E00E9439038D
:100EC000609158027091590280915A0290915B0290
:100ED0000E9466048FE392E00E94390360915702FA
:100EE00070E090E080E04AE00E9446038FE192E0EB
:100EF0000E943903A5CF853009F087CF179A159A3C
:100F0000139A119A45CF823071F41298809108019A
:100F10008061809308011798159813981198809113
:100F200005018F7786CF833009F08ACF129AEECFF2
:100F300068EC70E080E090E00E9426020E94B90117
:100F4000AACEE0E6F2E01382128288EE93E0A0E0FF
:100F5000B0E084839583A683B78385E092E0918394
:100F600080838DEC90E0958784878CEC90E0978768
:100F7000868788EC90E0918B808B89EC90E0938B56
:100F8000828B8AEC90E0958B848B8EEC90E0978B33
:100F9000868B118E128E138E148E08955058BB2797
:100FA000AA270E94E6070C9459090E944B0938F0C1
:100FB0000E94520920F039F49F3F19F426F40C9452
:100FC00048090EF4E095E7FB0C944209E92F0E94D2
:100FD0006A0958F3BA17620773078407950720F068
:100FE00079F4A6F50C948C090EF4E0950B2EBA2F2B
:100FF000A02D0B01B90190010C01CA01A00111241F
:10100000FF27591B99F0593F50F4503E68F11A16CA
:10101000F040A22F232F342F4427585FF3CF46955B
:1010200037952795A795F0405395C9F77EF41F167D
:10103000BA0B620B730B840BBAF09150A1F0FF0F47
:10104000BB1F661F771F881FC2F70EC0BA0F621F33
:10105000731F841F48F4879577956795B795F79523
:101060009E3F08F0B0CF9395880F08F09927EE0FB8
:101070009795879508950E941E0908F481E00895C8
:101080000E9454080C9459090E94520958F00E9479
:101090004B0940F029F45F3F29F00C9442095111AB
:1010A0000C948D090C9448090E946A0968F39923ED
:1010B000B1F3552391F3951B550BBB27AA27621754
:1010C0007307840738F09F5F5F4F220F331F441F61
:1010D000AA1FA9F335D00E2E3AF0E0E832D0915095
:1010E0005040E695001CCAF72BD0FE2F29D0660F82
:1010F000771F881FBB1F261737074807AB07B0E8C5
:1011000009F0BB0B802DBF01FF2793585F4F3AF0CA
:101110009E3F510578F00C9442090C948D095F3F75
:10112000E4F3983ED4F3869577956795B795F79550
:101130009F5FC9F7880F911D9695879597F9089538
:10114000E1E0660F771F881FBB1F621773078407D4
:10115000BA0720F0621B730B840BBA0BEE1F88F7E3
:10116000E09508950E94720988F09F5798F0B92F72
:101170009927B751B0F0E1F0660F771F881F991FCC
:101180001AF0BA95C9F714C0B13091F00E948C09D9
:10119000B1E008950C948C09672F782F8827B85FE9
:1011A00039F0B93FCCF3869577956795B395D9F724
:1011B0003EF490958095709561957F4F8F4F9F4F2E
:1011C0000895E89409C097FB3EF49095809570953A
:1011D00061957F4F8F4F9F4F9923A9F0F92F96E983
:1011E000BB279395F695879577956795B795F111F8
:1011F000F8CFFAF4BB0F11F460FF1BC06F5F7F4F95
:101200008F4F9F4F16C0882311F096E911C07723A6
:1012100021F09EE8872F762F05C0662371F096E8AF
:10122000862F70E060E02AF09A95660F771F881F7E
:10123000DAF7880F9695879597F90895990F000822
:10124000550FAA0BE0E8FEEF16161706E807F90798
:10125000C0F012161306E407F50798F0621B730B33
:10126000840B950B39F40A2661F0232B242B252BB4
:1012700021F408950A2609F4A140A6958FEF811D57
:10128000811D089597F99F6780E870E060E00895F8
:101290009FEF80EC089500240A941616170618068E
:1012A0000906089500240A9412161306140605066A
:1012B0000895092E0394000C11F4882352F0BB0FFB
:1012C00040F4BF2B11F460FF04C06F5F7F4F8F4F5E
:1012D0009F4F089557FD9058440F551F59F05F3F99
:1012E00071F04795880F97FB991F61F09F3F79F048
:1012F00087950895121613061406551FF2CF4695CA
:10130000F1DF08C0161617061806991FF1CF86954B
:101310007105610508940895E894BB27662777272F
:10132000CB0197F908950E941E0908F48FEF0895E4
:101330000E94AB090C9459090E944B0938F00E9495
:10134000520920F0952311F00C9442090C9448099D
:1013500011240C948D090E946A0970F3959FC1F3C2
:10136000950F50E0551F629FF001729FBB27F00D53
:10137000B11D639FAA27F00DB11DAA1F649F6627A8
:10138000B00DA11D661F829F2227B00DA11D621FF7
:10139000739FB00DA11D621F839FA00D611D221FB1
:1013A000749F3327A00D611D231F849F600D211D95
:1013B000822F762F6A2F11249F5750409AF0F1F018
:1013C00088234AF0EE0FFF1FBB1F661F771F881F81
:1013D00091505040A9F79E3F510580F00C9442096E
:1013E0000C948D095F3FE4F3983ED4F3869577958E
:1013F0006795B795F795E7959F5FC1F7FE2B880F27
:10140000911D9695879597F908950E941E09880B5E
:10141000990B089597FB072E16F4009407D077FDDB
:1014200009D00E94400A07FC05D03EF490958195B2
:101430009F4F0895709561957F4F0895A1E21A2EF0
:10144000AA1BBB1BFD010DC0AA1FBB1FEE1FFF1F68
:10145000A217B307E407F50720F0A21BB30BE40BB8
:10146000F50B661F771F881F991F1A9469F76095FF
:101470007095809590959B01AC01BD01CF010895B9
:10148000AA1BBB1B51E107C0AA1FBB1FA617B707AA
:1014900010F0A61BB70B881F991F5A95A9F78095C6
:1014A0009095BC01CD010895EE0FFF1F881F8BBFE3
:0C14B0000790F691E02D1994F894FFCFFE
:1014BC0001000000004C01B600E30099011401F298
:1014CC000006016E616E00696E66006F7666000D37
:1014DC000A007072657373757265203A2000206B78
:1014EC005061005453333A20005253203A2000727A
:0A14FC00756E6E696E67203A2000DD
:00000001FF
